:100000001FC043C01DC341C040C0D0C23EC03DC0A0
:100010003CC03BC03AC039C038C037C036C0000011
:100020000000370001020000040001020408102053
:100030000000000038000202020202024F053908E7
:1000400011241FBECFE5D2E0DEBFCDBF10E0A0E699
:10005000B0E0E4E0F6E102C005900D92A038B107EF
:10006000D9F721E0A0E8B0E001C01D92A933B207A2
:10007000E1F710E0CFE1D0E003C02197FE016AD89C
:10008000CE31D107D1F796D5B1CABACFDC01362F20
:10009000E0912701EE2381F0F0E0862F90E0BF0190
:1000A00023D8392F842F90E0BF011ED8492F822FEB
:1000B00090E0BF0119D8292FCD0163E070E014D87A
:1000C0006091280170912901860F971F50912A0194
:1000D000FC01E50FF11D308330912B01FC01E30F92
:1000E000F11D408330912C01FC01E30FF11D2083B1
:1000F00008954F925F926F927F928F929F92AF92EC
:10010000BF92CF92DF92EF92FF922B013C01C09001
:100110007600D0907700E0907800F0907900C701E9
:10012000B6018827992729E630E940E050E0EDD76D
:100130006701EE24FF244B015C018C0C9D1CAE1C5E
:10014000BF1C8092760090927700A0927800B092C7
:100150007900C0907200D0907300E0907400F0902D
:100160007500C701B6018827992720E536E440E0ED
:1001700050E0CBD76701EE24FF24C60ED71EE81E41
:10018000F91EC0927200D0927300E0927400F09257
:100190007500D40199278827BC01CD016C0D7D1D08
:1001A0008E1D9F1D09D820E030E040E85FE26AD84C
:1001B0006B017C01C301B201FFD79B01AC01C701F8
:1001C000B60160D8CDD7FF90EF90DF90CF90BF9071
:1001D000AF909F908F907F906F905F904F90089519
:1001E00087FF11C08F7741F0813041F0823041F0BC
:1001F000833041F08FEF07C085E005C082E003C087
:1002000084E001C083E090E0FC01EC5DFF4F2491AD
:10021000FC01E65DFF4F3491FC01EA5CFF4FE49185
:10022000EE2379F12223B1F0213019F48AB58F77CA
:1002300004C0223021F48AB58F7D8ABD0BC02330E3
:1002400021F480B78F7D80BF05C0243019F48CB5B0
:100250008F7D8CBDF0E0EE0FFF1FE05DFF4FA5919D
:10026000B491611108C09FB7F8948C9130953823F0
:100270003C939FBF08958FB7F894EC913E2B3C932D
:100280008FBF0895CF93DF9387FF11C08F7741F021
:10029000813041F0823041F0833041F08FEF07C070
:1002A00085E005C082E003C084E001C083E090E007
:1002B000FC01E65DFF4F2491FC01EA5CFF4F849155
:1002C000882361F190E0880F991FFC01E25EFF4FE7
:1002D000C591D491FC01E05DFF4FA591B4916111EE
:1002E00009C09FB7F8948881209582238883EC9178
:1002F0002E230BC0623061F49FB7F8948881322FAF
:10030000309583238883EC912E2B2C939FBF06C0BE
:100310008FB7F894E8812E2B28838FBFDF91CF9180
:1003200008953FB7F8948091A9009091AA00A091F8
:10033000AB00B091AC0022B708B601FE05C02F3F5C
:1003400019F00196A11DB11D3FBFBA2FA92F982FFB
:100350008827820F911DA11DB11DBC01CD0143E075
:10036000660F771F881F991F4A95D1F708950F933D
:100370001F93CF93DF93CDB7DEB727970FB6F894CF
:10038000DEBF0FBECDBFCDDF00912E0110912F013A
:100390002091300130913101DC01CB01801B910BA8
:1003A000A20BB30BC297A105B10568F3F894809135
:1003B0002401909125019A838983A0912801B0910D
:1003C0002901FD0131968C918F831B8298B3809116
:1003D0003401982B9E8398B3809589238D838D81DA
:1003E0008C838F8187FF02C08E818C835E816D81BB
:1003F0004F813C812B8189819A8158BB262F38BB44
:1004000000C046FD252F68BB00C058BB362F28BB57
:1004100000C045FD352F68BB00C058BB262F38BB38
:1004200000C044FD252F68BB00C058BB362F28BB39
:1004300000C043FD352F68BB00C058BB262F38BB1A
:1004400000C042FD252F68BB00C058BB362F28BB1B
:1004500000C041FD352F68BB00C058BB262F38BBFC
:1004600000C040FD252F68BB019758BB362F28BB25
:10047000419147FD352F68BB01F64F833C832B83A9
:100480009A83898378944DDF60932E0170932F01B6
:10049000809330019093310127960FB6F894DEBF18
:1004A0000FBECDBFDF91CF911F910F910895CF92D5
:1004B000DF92EF92FF92CF93DF936B017C0131DFEC
:1004C000EB01C114D104E104F10499F02ADF6C1BA3
:1004D0007D0B683E7340A8F3C114D104E104F1041C
:1004E00081F381E0C81AD108E108F108C851DC4F56
:1004F000EDCFDF91CF91FF90EF90DF90CF900895F7
:10050000CF93DF93D82FC2E061E08D2F69DE6AEFD1
:1005100070E080E090E0CBDF60E08D2F61DE6AEF7D
:1005200070E080E090E0C3DFC15071F7DF91CF91C0
:1005300008952FB7F8946091A5007091A60080915E
:10054000A7009091A8002FBF0895E0E6F0E020E01A
:1005500030E0408151814817590751F4220F331F71
:10056000220F331FF901E05AFF4F828193810895D2
:100570002F5F3F4F34962430310559F780E090E0EB
:100580000895E0E6F0E0208131812817390711F461
:1005900073836283349620E0E037F207A1F740E1ED
:1005A00050E060E070E080E690E07EC51F920F9220
:1005B0000FB60F9211242F933F938F939F93AF9376
:1005C000BF938091A5009091A600A091A700B09143
:1005D000A8003091A40026E0230F2D3730F029E841
:1005E000230F0396A11DB11D03C00296A11DB11DCD
:1005F0002093A4008093A5009093A600A093A70049
:10060000B093A8008091A9009091AA00A091AB009E
:10061000B091AC000196A11DB11D8093A9009093EB
:10062000AA00A093AB00B093AC00BF91AF919F9193
:100630008F913F912F910F900FBE0F901F901895A3
:100640001F920F920FB60F921124EF92FF920F9309
:100650001F932F933F934F935F936F937F938F934A
:100660009F93AF93BF93CF93DF93EF93FF9386B3A3
:1006700090E00090B30002C0959587950A94E2F748
:10068000282F217030E08091AF009091B0002817A2
:10069000390709F0EDC145DEAB01BC014093B6005E
:1006A0005093B7006093B8007093B9008091BA007E
:1006B0009091BB00A091BC00B091BD008A019B014C
:1006C000081B190B2A0B3B0BD901C8010093BE0074
:1006D0001093BF002093C0003093C1004093BA0034
:1006E0005093BB006093BC007093BD00B901A8019A
:1006F0004B575109610971094D3451056105710567
:10070000C0F540918000509181006091820070910D
:1007100083004F5F5F4F6F4F7F4F40938000509338
:10072000810060938200709383004630510561051B
:100730007105FCF021E030E04091AF005091B00035
:100740004130510511F420E030E03093B0002093A7
:10075000AF001092800010928100109282001092DF
:1007600083001092B2001092B1001092AE0010926D
:10077000AD002091AD003091AE002130310509F17E
:1007800040F02230310581F12330310509F4E8C011
:100790006FC18A379105A105B105F8F48091B100C8
:1007A0009091B20001969093B2008093B1000E97A1
:1007B0000CF45EC181E090E09093AE008093AD00B8
:1007C00006C18A379105A105B10508F451C183E03E
:1007D00090E09093AE008093AD001092B200109222
:1007E000B1001092C900F3C08A379105A105B10587
:1007F00008F0B3C081E08093B5001092AE00109273
:10080000AD001092B2001092B100109280001092D0
:1008100081001092820010928300F8941092870059
:10082000109286002091C900422F50E0EDEAF0E0DE
:1008300080E090E0BF016D5A70406417750724F4A2
:10084000368983273196F6CF892B09F082C0233071
:1008500008F47FC08091C300182F107C91E01038FD
:1008600009F490E0C92FD0E0D0938500C0938400B4
:100870009130D9F487FD07C090E090938700809372
:10088000860001E045C090E4980F983208F03FC020
:100890008F7390E0982F88272091C400822B90932B
:1008A00087008093860002E033C04091C4008F73BC
:1008B000342F367047FF0FC090E0909387008093ED
:1008C0008600232F30E035952795209388004170CE
:1008D00040938A001CC0407750E064E0440F551FED
:1008E0006A95E1F7232F30E075E0220F331F7A95E8
:1008F000E1F7242B352BA901482BCA0190938700DF
:10090000809386008091C5008F718093890000E0FC
:10091000E0908600F090870081E090E016DEE81617
:10092000F906B9F482E090E010DEC817D90789F41F
:10093000103879F0E02FF0E0E355FF4FC6898C2F97
:10094000807E803609F45FC008F04AC0803409F424
:100950005AC078941092C9008BC083E090E02AC0FE
:100960004091B1005091B2004F5F5F4F5093B20081
:100970004093B1003091C200330F21E08A379105D6
:10098000A105B10508F020E0832F822B8093C200DF
:100990004830510509F06CC0E091C900E63078F4A8
:1009A00091E09E0F9093C900F0E0E355FF4F868BD6
:1009B00082E090E09093AE008093AD0004C010926E
:1009C000AE001092AD001092B2001092B1001092E1
:1009D000800010928100109282001092830048C023
:1009E000803819F0803A29F0B4CFCF71C0938F00CE
:1009F000B0CF8C2F8F70C4FF03C080939000A9CF1D
:100A000080939100A6CFC5FB882780F980938E0044
:100A10008C2F8F7091E0813009F090E090938D00E1
:100A2000082F10E08230F8F083E090E08EDDC07196
:100A3000892B89F0C8010297880F991F2C2F30E06D
:100A400044E0359527954A95E1F7820F931F8C0175
:100A50000F5F1F4F08C00150110920918F002F70A8
:100A6000C22BC0938F0010938C0000938B0071CF2A
:100A7000FF91EF91DF91CF91BF91AF919F918F91B6
:100A80007F916F915F914F913F912F911F910F91A6
:100A9000FF90EF900F900FBE0F901F9018951F932F
:100AA000CF93DF931092AE001092AD0081E090E002
:100AB0009093B0008093AF001092B2001092B100FA
:100AC00082E090E09093B4008093B3001092B50060
:100AD0001092C90089E090E0909323018093220155
:100AE0008BE190E0909325018093240110922601E0
:100AF0001092270183E080932D0110922E01109215
:100B00002F011092300110923101E6E3F0E0E49100
:100B1000F0E0EE0FFF1FE05DFF4F85919491909301
:100B2000330180933201EAE2F0E0E491E093340192
:100B30008BE190E03AD490932901809328010097AB
:100B400029F02BE1FC0111922A95E9F781E08093CD
:100B50002A0110922B0182E080932C01CAECD0E094
:100B60001FEF188219821A831B821C821D821E822B
:100B70001F82188619861A86DCDC6B837C838D8342
:100B80009E83D7DC6F83788789879A87198260E094
:100B90008A8126DB61E08A8175DB198260E08A81C7
:100BA0001FDB2B96F1E0C232DF07D9F6DF91CF9140
:100BB0001F910895CF93DF93CDB7DEB760970FB63F
:100BC000F894DEBF0FBECDBF81B781BF8AB582600A
:100BD0008ABD8AB581608ABD83B7887F836083BF01
:100BE000789489B7826089BF80B7807F80BF80B7E3
:100BF000806880BF80B7806480BF8CB580648CBD06
:100C00008FEF8DBD80B7876080BF86B1887786689B
:100C100086B9379A87B3886187BB61E080912601E6
:100C200031DB60E080912601DBDA00E010E08091AA
:100C30002201909123010817190728F420E040E0D1
:100C400060E0C80123DA0F5F1F4F0930110579F703
:100C50008091280190912901892B09F088DB40E1DE
:100C600050E060E070E0CE0101960ED28B819C8155
:100C700040E150E060E070E0069721F480E690E00B
:100C800003D203C080E690E00FD2F894AA9A8BB703
:100C900080628BBFBA98C29878941092AE0010927E
:100CA000AD001092B2001092B10082E090E09093FB
:100CB000B4008093B3001092C90081E090E090935B
:100CC000B0008093AF006EEA73E05BDC61E070E03F
:100CD00082E090E056DCBB24B394CC24C39433244C
:100CE0003394DD24D3949AE0292E80918F00282F0D
:100CF0002470A22E60908E0070908B008071882EE0
:100D00000BEF1FEF912C84E0891558F09920F9F032
:100D1000C8010496EB2D01C0EE0F8A95EAF78E2FDD
:100D200017C0043048F48B2D002E01C0880F0A94A0
:100D3000EAF721E030E00EC0C8010497FB2D01C0A6
:100D4000FF0F8A95EAF78F2F22E030E003C080E1A1
:100D500020E030E0F901EC57FF4F9385892321E033
:100D600009F420E0892D622DE9D1E92FF0E0E75662
:100D7000FF4F808128130BC093940F5F1F4F2BE010
:100D80009212C1CFE5E9F0E080E090E037C08091B9
:100D900096008093950080919700809396008091B3
:100DA00098008093970090939800208389E098168C
:100DB00019F01092940005C0809194008F5F809389
:100DC0009400809194008530B9F6109294001092AE
:100DD000950010929600109297001092980089E961
:100DE000E82E80E0F82EF70111927F0184E088DB85
:100DF000F3EAEF16F0E0FF06B1F7BECF6AE070E06D
:100E000073D12191820F911D20E0E939F207B1F7EA
:100E10008E3A9340A9F484E073DB64EF71E080E0E4
:100E200090E045DB83E06CDB64EF71E080E090E014
:100E30003EDB84E065DB64EF71E080E090E037DB6F
:100E4000882071F0662051F060E083E0C9D961E04C
:100E500084E0C6D9F2E0F71550F41CC061E001C08F
:100E600060E083E0BDD960E084E0BAD913C080912E
:100E7000A300811123C08091220190912301099741
:100E800030F025E045E065E088E090E0FFD8D092C2
:100E9000A30012C08091A300882381F080912201D9
:100EA00090912301099730F020E040E060E088E075
:100EB00090E0ECD81092A300D09271000AEC10E000
:100EC000812C912CE12CF12CF801A11007C011828A
:100ED00060E0828185D9F80110827FC08081811114
:100EE0007CC083819481A581B681892B8A2B8B2B31
:100EF00069F51FDB2B013C016AEF70E080E090E0B8
:100F0000F8D8460E571E681E791EF2E34F0E511C8C
:100F1000611C711CF801438254826582768209DB70
:100F20002B013C0160ED77E080E090E0E2D8460ED6
:100F3000571E681E791EF8EE4F0EF3E05F1E611C0F
:100F4000711CF8014782508661867286F8014380E1
:100F5000548065807680EDDA461657066806790675
:100F6000E0F5F8014780508461847284E2DAF80188
:100F7000461657066806790650F4C082138214821A
:100F800015821682C18261E082812AD926C08181C0
:100F900091E0811190E0F8019183811103C0C18239
:100FA00061E003C0F801118260E0828119D9C1DAE1
:100FB0002B013C016AEF70E080E090E09AD8460E89
:100FC000571E681E791EF2E34F0E511C611C711CE6
:100FD000F801438254826582768280912201909149
:100FE0002301E816F90680F4F8019181892F62E166
:100FF00072D0282F892F65E16ED0482F892F66E1A6
:101000006AD0682FC70142D8F8018081882319F07F
:10101000FFEF8F1A9F0A2FEFE21AF20A055F1F4FA8
:1010200088E0E816F10409F04FCF80917000AA2003
:1010300059F081110FC03092710098E08916910427
:1010400071F4309270000BC0882321F0D0927100AF
:101050001092700080917100882309F446CE80912F
:10106000280190912901892B09F081D910927100F2
:101070003ACE8091280190912901009709F02DD254
:1010800060E080912601FEC8DC01CB01FC01E19902
:10109000FECF06C0FFBBEEBBE09A31960DB20D92BB
:1010A00041505040B8F70895DC01CB0102C02D91AA
:1010B00005D041505040D8F70895262FE199FECF32
:1010C0001CBA9FBB8EBB2DBB0FB6F894E29AE19A77
:1010D0000FBE01960895002480FD060E660F11F0E4
:1010E0008695D1F7802D08950024552704C0080E59
:1010F000591F880F991F009729F076956795B8F3C7
:101100007105B9F7802D952F0895EE27FF27AA279F
:10111000BB2708C0A20FB31FE41FF51F220F331F08
:10112000441F551F969587957795679598F370405E
:10113000A9F7009799F7BD01CF010895991B79E0B0
:1011400004C0991F961708F0961B881F7A95C9F757
:1011500080950895EE0FFF1F0590F491E02D0994FE
:1011600070D088F09F5790F0B92F9927B751A0F011
:10117000D1F0660F771F881F991F1AF0BA95C9F72B
:1011800012C0B13081F077D0B1E0089574C0672FFC
:10119000782F8827B85F39F0B93FCCF386957795DB
:1011A0006795B395D9F73EF49095809570956195C4
:1011B0007F4F8F4F9F4F0895E89409C097FB3EF4EF
:1011C00090958095709561957F4F8F4F9F4F992394
:1011D000A9F0F92F96E9BB279395F6958795779512
:1011E0006795B795F111F8CFFAF4BB0F11F460FFD2
:1011F0001BC06F5F7F4F8F4F9F4F16C0882311F02A
:1012000096E911C0772321F09EE8872F762F05C03D
:10121000662371F096E8862F70E060E02AF09A95D8
:10122000660F771F881FDAF7880F9695879597F9CD
:10123000089557FD9058440F551F59F05F3F71F0C6
:101240004795880F97FB991F61F09F3F79F087952D
:101250000895121613061406551FF2CF4695F1DFB6
:1012600008C0161617061806991FF1CF8695710546
:10127000610508940895E894BB2766277727CB017A
:1012800097F908950AD080C071D028F076D018F070
:10129000952309F062C067C0EFCFCBDFA8F3992395
:1012A000D9F35523C9F3950F50E0551FAA27EE2710
:1012B000FF27BB2700240894679520F4E20FF31F53
:1012C000B41F0A1E220F331F441FAA1F6695A9F7D9
:1012D000779530F4F30FB41F0A1E121E08F46395BD
:1012E000330F441FAA1F221F769599F7879520F484
:1012F000B40F0A1E121E631F440FAA1F221F331FA2
:101300008695A9F7862F712D602D11249F57504087
:101310008AF0E1F088234AF0EE0FFF1FBB1F661F23
:10132000771F881F91505040A9F79E3F510570F0DC
:1013300014C0A2CF5F3FECF3983EDCF3869577951F
:101340006795B795F795E7959F5FC1F7FE2B880FD7
:10135000911D9695879597F9089597F99F6780E86D
:1013600070E060E008959FEF80EC089500240A94F7
:101370001616170618060906089500240A94121670
:101380001306140605060895092E0394000C11F4A3
:10139000882352F0BB0F40F4BF2B11F460FF04C050
:1013A0006F5F7F4F8F4F9F4F08950F931F93CF9382
:1013B000DF938230910510F482E090E0E0913701F4
:1013C000F091380120E030E0A0E0B0E0309719F172
:1013D000408151810281138148175907C8F0841751
:1013E000950769F4109731F012960C9312971396A3
:1013F0001C9327C0009337011093380122C0211598
:10140000310519F04217530718F49A01BD01EF0195
:10141000DF01F801DBCF21153105F9F0281B390B6D
:101420002430310580F48A819B816115710521F09A
:10143000FB019383828304C090933801809337012A
:10144000FE01329644C0FE01E20FF31F8193919397
:1014500022503109398328833AC0209135013091D7
:101460003601232B41F420917C0030917D00309394
:1014700036012093350120917A0030917B002115AF
:10148000310541F42DB73EB740917E0050917F0069
:10149000241B350BE0913501F0913601E217F3077B
:1014A000A0F42E1B3F0B2817390778F0AC014E5FD4
:1014B0005F4F2417350748F04E0F5F1F50933601DA
:1014C000409335018193919302C0E0E0F0E0CF01B9
:1014D000DF91CF911F910F910895CF93DF930097E4
:1014E00009F481C0FC01329713821282A091370166
:1014F000B0913801109781F420813181820F931FC0
:1015000020913501309136012817390751F5F093B4
:101510003601E093350167C0ED0120E030E0CE17E1
:10152000DF0740F44A815B819E0141155105F1F0CE
:10153000EA01F5CFD383C28340815181840F951F87
:10154000C817D90759F488819981840F951F02968D
:10155000918380838A819B819383828321153105C6
:1015600029F4F0933801E09337013DC0E901FB8392
:10157000EA8349915991C40FD51FEC17FD0761F417
:1015800080819181840F951F0296E9019983888358
:10159000828193819B838A83E0E0F0E012968D91B3
:1015A0009C911397009719F0FD01DC01F7CF8D9105
:1015B0009C9111979D012E5F3F4F820F931F2091A9
:1015C0003501309136012817390769F4309729F42D
:1015D000109238011092370102C013821282B09328
:1015E0003601A0933501DF91CF91089510E0CFE14E
:1015F000D0E003C0FE01AEDD2196C032D107D1F7A5
:04160000F894FFCF8C
:101604000000060001002A0002000100030001009E
:101614000101010000000200000000003901200067
:00000001FF
