:1000000018C03CC076C23AC02DC238C037C036C016
:1000100035C034C033C032C031C030C02FC000370B
:100020000102040810200038010101010101A804A7
:10003000E60611241FBECFE5D2E0DEBFCDBF10E043
:10004000A0E6B0E0E6E4F3E102C005900D92A0382E
:10005000B107D9F721E0A0E8B0E001C01D92AA32B3
:10006000B207E1F710E0C8E1D0E003C02197FE013C
:1000700012D7C731D107D1F7F4D459C9C1CFDC01A8
:10008000362FE0911801EE2381F0F0E0862F90E00A
:10009000BF01D7D6392F842F90E0BF01D2D6492F88
:1000A000822F90E0BF01CDD6292FCD0163E070E013
:1000B000C8D66091190170911A01860F971F50914F
:1000C0001B01FC01E50FF11D308330911C01FC0187
:1000D000E30FF11D408330911D01FC01E30FF11D81
:1000E000208308954F925F926F927F928F929F929A
:1000F000AF92BF92CF92DF92EF92FF922B013C0121
:10010000C0907600D0907700E0907800F090790071
:10011000C701B6018827992729E630E940E050E079
:10012000A1D66701EE24FF244B015C018C0C9D1CC1
:10013000AE1CBF1C8092760090927700A09278004F
:10014000B0927900C0907200D0907300E09074007B
:10015000F0907500C701B6018827992720E536E49D
:1001600040E050E07FD66701EE24FF24C60ED71E84
:10017000E81EF91EC0927200D0927300E0927400E3
:10018000F0927500D40199278827BC01CD016C0D30
:100190007D1D8E1D9F1DB1D620E030E040E85FE25E
:1001A00012D76B017C01C301B201A7D69B01AC0140
:1001B000C701B60108D775D6FF90EF90DF90CF90BA
:1001C000BF90AF909F908F907F906F905F904F9077
:1001D0000895282F30E0F901E05EFF4F9491F90176
:1001E000E85DFF4FE491EE2331F1811103C08AB540
:1001F0008F7304C0813021F48AB58F7C8ABD05C01D
:10020000843019F48CB58F7C8CBDF0E0EA5DFF4F33
:10021000A491B0E0611109C02FB7F8948C91E92F37
:10022000E095E823EC932FBF08958FB7F894EC91F5
:10023000E92BEC938FBF0895CF93DF9390E0FC01FF
:10024000E05EFF4F2491FC01E85DFF4F849188231D
:1002500059F190E0FC01E25EFF4FE491CE2FD0E037
:10026000FC01EA5DFF4F8491611108C09FB7F894CB
:100270008881E22FE095E823E8830EC0623071F4B4
:10028000A82FB0E09FB7F8948881322F3095832350
:100290008883EC91E22BEC939FBF06C08FB7F89454
:1002A000E881E22BE8838FBFDF91CF9108953FB7BC
:1002B000F89480919A0090919B00A0919C00B0913D
:1002C0009D002FB508B602FE05C02F3F19F001961C
:1002D000A11DB11D3FBFBA2FA92F982F8827820FCC
:1002E000911DA11DB11DBC01CD0142E0660F771F1C
:1002F000881F991F4A95D1F708950F931F93CF93A5
:10030000DF93CDB7DEB727970FB6F894DEBF0FBEE9
:10031000CDBFCDDF00911F0110912001209121015F
:1003200030912201DC01CB01801B910BA20BB30B9E
:10033000C297A105B10568F3F894809115019091D9
:1003400016019A838983E0911901F0911A01DF0166
:10035000119680818F83E0912301F0912401908197
:1003600080912501982B9E839081809589238D8390
:100370008D818C8388E08B835E816D814F813B8191
:100380002C8189819A81508347FD252F3A952083BE
:10039000262F39F0441F00C000006083000000C019
:1003A000F2CF38E04D9160830000019761F7F09340
:1003B0002401E09323014F833B832C839A83898319
:1003C000789475DF60931F01709320018093210161
:1003D0009093220127960FB6F894DEBF0FBECDBFD3
:1003E000DF91CF911F910F9108952FB7F8946091ED
:1003F00096007091970080919800909199002FBF7E
:100400000895E0E6F0E020E030E0408151814817B7
:10041000590751F4220F331F220F331FF901E05AFD
:10042000FF4F8281938108952F5F3F4F3496243090
:10043000310559F780E090E00895E0E6F0E0208192
:1004400031812817390711F473836283349620E0D1
:10045000E037F207A1F740E150E060E070E080E6AD
:1004600090E0CFC478941F920F920FB60F92112490
:100470002F933F938F939F93AF93BF938091960059
:1004800090919700A0919800B091990030919500BB
:100490002CE7230F2D3728F02FEF230F0196A11DF6
:1004A000B11D209395008093960090939700A093A0
:1004B0009800B093990080919A0090919B00A09130
:1004C0009C00B0919D000196A11DB11D80939A00E2
:1004D00090939B00A0939C00B0939D00BF91AF911F
:1004E0009F918F913F912F910F900FBE0F901F9072
:1004F00018951F920F920FB60F921124EF92FF9250
:100500000F931F932F933F934F935F936F937F931B
:100510008F939F93AF93BF93CF93DF93EF93FF930B
:1005200086B390E00090A40002C0959587950A9448
:10053000E2F7282F217030E08091A0009091A10077
:100540002817390709F0EDC1B2DEAB01BC014093B9
:10055000A7005093A8006093A9007093AA0080910F
:10056000AB009091AC00A091AD00B091AE008A01BB
:100570009B01081B190B2A0B3B0BD901C8010093E7
:10058000AF001093B0002093B1003093B2004093BD
:10059000AB005093AC006093AD007093AE00B90116
:1005A000A8014B575109610971094D345105610585
:1005B0007105C0F5409180005091810060918200EA
:1005C000709183004F5F5F4F6F4F7F4F409380006C
:1005D00050938100609382007093830046305105F0
:1005E00061057105FCF021E030E04091A0005091E0
:1005F000A1004130510511F420E030E03093A1001A
:100600002093A0001092800010928100109282002E
:10061000109283001092A3001092A20010929F00EB
:1006200010929E0020919E0030919F002130310554
:1006300009F140F02230310581F12330310509F410
:10064000E8C06FC18A379105A105B105F8F4809122
:10065000A2009091A30001969093A3008093A20022
:100660000E970CF45EC181E090E090939F00809320
:100670009E0006C18A379105A105B10508F451C154
:1006800083E090E090939F0080939E001092A300DF
:100690001092A2001092BA00F3C08A379105A1050A
:1006A000B10508F0B3C081E08093A60010929F00CE
:1006B00010929E001092A3001092A200109280004F
:1006C000109281001092820010928300F894109290
:1006D0008700109286002091BA00422F50E0EEE988
:1006E000F0E080E090E0BF016E597040641775073C
:1006F00024F4368983273196F6CF892B09F082C0FE
:10070000233008F47FC08091B400182F107C91E052
:10071000103809F490E0C92FD0E0D0938500C09341
:1007200084009130D9F487FD07C090E09093870052
:100730008093860001E045C090E4980F983208F05D
:100740003FC08F7390E0982F88272091B500822BAF
:10075000909387008093860002E033C04091B500FB
:100760008F73342F367047FF0FC090E0909387004F
:1007700080938600232F30E03595279520938800BD
:10078000417040938A001CC0407750E064E0440F01
:10079000551F6A95E1F7232F30E075E0220F331FD4
:1007A0007A95E1F7242B352BA901482BCA019093A8
:1007B0008700809386008091B6008F7180938900B6
:1007C00000E0E0908600F090870081E090E019DE84
:1007D000E816F906B9F482E090E013DEC817D907ED
:1007E00089F4103879F0E02FF0E0E256FF4FC68927
:1007F0008C2F807E803609F45FC008F04AC08034B8
:1008000009F45AC078941092BA008BC083E090E04B
:100810002AC04091A2005091A3004F5F5F4F5093B8
:10082000A3004093A2003091B300330F21E08A3738
:100830009105A105B10508F020E0832F822B80935C
:10084000B3004830510509F06CC0E091BA00E630C1
:1008500078F491E09E0F9093BA00F0E0E256FF4FDB
:10086000868B82E090E090939F0080939E0004C06E
:1008700010929F0010929E001092A3001092A2006E
:1008800010928000109281001092820010928300DA
:1008900048C0803819F0803A29F0B4CFCF71C093A6
:1008A0008F00B0CF8C2F8F70C4FF03C08093900057
:1008B000A9CF80939100A6CFC5FB882780F98093AC
:1008C0008E008C2F8F7091E0813009F090E0909332
:1008D0008D00082F10E08230F8F083E090E091DD89
:1008E000C071892B89F0C8010297880F991F2C2F9E
:1008F00030E044E0359527954A95E1F7820F931F44
:100900008C010F5F1F4F08C00150110920918F000B
:100910002F70C22BC0938F0010938C0000938B001C
:1009200071CFFF91EF91DF91CF91BF91AF919F91E7
:100930008F917F916F915F914F913F912F911F9177
:100940000F91FF90EF900F900FBE0F901F90189592
:100950001F93CF93DF9310929F0010929E0081E02F
:1009600090E09093A1008093A0001092A3001092B9
:10097000A20082E090E09093A5008093A4001092E2
:10098000A6001092BA0089E090E090931401809341
:1009900013018BE190E09093160180931501109262
:1009A00017011092180183E080931E0110921F011D
:1009B000109220011092210110922201E8E2F0E051
:1009C000E491F0E0EA5DFF4FE491F0E0F093240160
:1009D000E0932301E0E2F0E0E491E09325018BE174
:1009E00090E084D390931A0180931901009729F025
:1009F0002BE1FC0111922A95E9F781E080931B011C
:100A000010921C0182E080931D01CBEBD0E01FEF20
:100A1000188219821A831B821C821D821E821F82E9
:100A2000188619861A86E1DC6B837C838D839E830E
:100A3000DCDC6F83788789879A87198260E08A81F6
:100A4000C8DB61E08A81F8DB198260E08A81C1DB62
:100A50002B96F1E0C331DF07D9F6DF91CF911F91DB
:100A60000895CF93DF93CDB7DEB760970FB6F894B4
:100A7000DEBF0FBECDBF789480B7806880BF80B7DF
:100A8000806480BF8CB580648CBD8FEF8DBD80B7D6
:100A9000807F876080BF89B7846089BF83B7887F84
:100AA00083BF8AB58C7F81608ABD83B7877F83BF10
:100AB00083B7887F836083BF86B1876086B9379AA2
:100AC00087B3886187BB61E080911701B5DB60E087
:100AD000809117017EDB00E010E08091130190917E
:100AE00014010817190728F420E040E060E0C8016D
:100AF000C6DA0F5F1F4F0930110579F78091190190
:100B000090911A01892B09F0F8DB40E150E060E098
:100B100070E0CE01019665D18B819C8140E150E06F
:100B200060E070E0069721F480E690E05AD103C0BF
:100B300080E690E066D1F894AA9A8BB780628BBF6A
:100B4000BA98C298789410929F0010929E001092CA
:100B5000A3001092A20082E090E09093A500809301
:100B6000A4001092BA0081E090E09093A1008093DD
:100B7000A0006EEA73E061DC61E070E082E090E08A
:100B80005CDCEE24E394FF24F39480918F00982F93
:100B90009470992E84FF11C080918E00882359F0A3
:100BA00010918B0060E083E014DB61E084E011DBF6
:100BB000133050F01CC061E001C060E083E009DB4D
:100BC00060E084E006DB13C080919400811123C0B3
:100BD0008091130190911401099730F025E045E0D0
:100BE00065E088E090E04BDAF092940012C08091CA
:100BF0009400882381F0809113019091140109974A
:100C000030F020E040E060E088E090E038DA1092D8
:100C10009400F09271000BEB10E0A12CB12CC12CD0
:100C2000D12CF801911007C0118260E08281D1DAE5
:100C3000F80110827FC0808181117CC08381948102
:100C4000A581B681892B8A2B8B2B69F5CEDB2B01F5
:100C50003C016AEF70E080E090E044DADC01CB0117
:100C6000840D951DA61DB71DC296A11DB11DF801CD
:100C700083839483A583B683B8DB2B013C0160EDAD
:100C800077E080E090E02EDADC01CB01840D951D49
:100C9000A61DB71D88519C4FAF4FBF4FF8018783EA
:100CA0009087A187B287F801438054806580768061
:100CB0009CDB4616570668067906E0F5F801478082
:100CC00050846184728491DBF801461657066806E9
:100CD000790650F4E0821382148215821682E18232
:100CE00061E0828176DA26C0818191E0811190E015
:100CF000F8019183811103C0E18261E003C0F80132
:100D0000118260E0828165DA70DB2B013C016AEFC1
:100D100070E080E090E0E6D9DC01CB01840D951D08
:100D2000A61DB71DC296A11DB11DF8018383948332
:100D3000A583B6838091130190911401C816D9063A
:100D400080F4F8019181892F62E172D0282F892FD8
:100D500065E16ED0482F892F66E16AD0682FC60101
:100D60008ED9F8018081882319F0FFEFAF1ABF0AEE
:100D70008FEFC81AD80A055F1F4F98E0C916D10433
:100D800009F04FCF80917000992059F081110FC068
:100D9000F0927100E8E0AE16B10471F4F0927000C8
:100DA0000BC0882321F0F0927100109270008091A6
:100DB0007100882309F4E9CE8091190190911A01FC
:100DC000892B09F09ADA10927100DFCE8091190117
:100DD00090911A01009709F021D260E080911701EB
:100DE0002BCADC01CB01FC01E199FECF06C0FFBBA1
:100DF000EEBBE09A31960DB20D9241505040B8F7DB
:100E00000895DC01CB0102C02D9105D04150504026
:100E1000D8F70895262FE199FECF1CBA9FBB8EBB51
:100E20002DBB0FB6F894E29AE19A0FBE0196089591
:100E3000002480FD060E660F11F08695D1F7802DF7
:100E400008950024552704C0080E591F880F991FC4
:100E5000009729F076956795B8F37105B9F7802D5D
:100E6000952F0895EE27FF27AA27BB2708C0A20FBA
:100E7000B31FE41FF51F220F331F441F551F969504
:100E800087957795679598F37040A9F7009799F73C
:100E9000BD01CF010895EE0FFF1F0590F491E02DE5
:100EA000099470D088F09F5790F0B92F9927B751C7
:100EB000A0F0D1F0660F771F881F991F1AF0BA951E
:100EC000C9F712C0B13081F077D0B1E0089574C095
:100ED000672F782F8827B85F39F0B93FCCF3869514
:100EE00077956795B395D9F73EF490958095709571
:100EF00061957F4F8F4F9F4F0895E89409C097FBEE
:100F00003EF490958095709561957F4F8F4F9F4FE0
:100F10009923A9F0F92F96E9BB279395F695879524
:100F200077956795B795F111F8CFFAF4BB0F11F4E7
:100F300060FF1BC06F5F7F4F8F4F9F4F16C088238E
:100F400011F096E911C0772321F09EE8872F762FC4
:100F500005C0662371F096E8862F70E060E02AF005
:100F60009A95660F771F881FDAF7880F96958795F1
:100F700097F9089557FD9058440F551F59F05F3F5A
:100F800071F04795880F97FB991F61F09F3F79F0AB
:100F900087950895121613061406551FF2CF46952D
:100FA000F1DF08C0161617061806991FF1CF8695AF
:100FB0007105610508940895E894BB276627772793
:100FC000CB0197F908950AD080C071D028F076D06F
:100FD00018F0952309F062C067C0EFCFCBDFA8F30C
:100FE0009923D9F35523C9F3950F50E0551FAA272C
:100FF000EE27FF27BB2700240894679520F4E20F13
:10100000F31FB41F0A1E220F331F441FAA1F669529
:10101000A9F7779530F4F30FB41F0A1E121E08F4D7
:101020006395330F441FAA1F221F769599F7879562
:1010300020F4B40F0A1E121E631F440FAA1F221FA2
:10104000331F8695A9F7862F712D602D11249F5788
:1010500050408AF0E1F088234AF0EE0FFF1FBB1FDB
:10106000661F771F881F91505040A9F79E3F51057A
:1010700070F014C0A2CF5F3FECF3983EDCF386958E
:1010800077956795B795F795E7959F5FC1F7FE2B25
:10109000880F911D9695879597F9089597F99F6701
:1010A00080E870E060E008959FEF80EC08950024F0
:1010B0000A941616170618060906089500240A94BD
:1010C00012161306140605060895092E0394000C43
:1010D00011F4882352F0BB0F40F4BF2B11F460FFD2
:1010E00004C06F5F7F4F8F4F9F4F08950F931F93E3
:1010F000CF93DF938230910510F482E090E0E0918D
:101100002801F091290120E030E0A0E0B0E0309724
:1011100019F1408151810281138148175907C8F0A4
:101120008417950769F4109731F012960C93129773
:1011300013961C9327C0009328011093290122C005
:101140002115310519F04217530718F49A01BD0112
:10115000EF01DF01F801DBCF21153105F9F0281B84
:10116000390B2430310580F48A819B81611571052A
:1011700021F0FB019383828304C090932901809323
:101180002801FE01329644C0FE01E20FF31F819355
:10119000919322503109398328833AC02091260146
:1011A00030912701232B41F420917C0030917D0068
:1011B000309327012093260120917A0030917B0003
:1011C0002115310541F42DB73EB740917E00509175
:1011D0007F00241B350BE0912601F0912701E217D7
:1011E000F307A0F42E1B3F0B2817390778F0AC014A
:1011F0004E5F5F4F2417350748F04E0F5F1F509327
:101200002701409326018193919302C0E0E0F0E032
:10121000CF01DF91CF911F910F910895CF93DF936D
:10122000009709F481C0FC01329713821282A091C9
:101230002801B0912901109781F420813181820F1A
:10124000931F20912601309127012817390751F566
:10125000F0932701E093260167C0ED0120E030E024
:10126000CE17DF0740F44A815B819E01411551058D
:10127000F1F0EA01F5CFD383C28340815181840F1D
:10128000951FC817D90759F488819981840F951F34
:101290000296918380838A819B8193838283211527
:1012A000310529F4F0932901E09328013DC0E901BB
:1012B000FB83EA8349915991C40FD51FEC17FD07B1
:1012C00061F480819181840F951F0296E9019983D1
:1012D0008883828193819B838A83E0E0F0E0129689
:1012E0008D919C911397009719F0FD01DC01F7CFC8
:1012F0008D919C9111979D012E5F3F4F820F931FFF
:1013000020912601309127012817390769F4309779
:1013100029F4109229011092280102C0138212822E
:10132000B0932701A0932601DF91CF91089510E09B
:10133000C8E1D0E003C0FE01AEDD2196C931D1077E
:06134000D1F7F894FFCF85
:101346000000060001002A0002000100030001005F
:101356000101010000000200000000002A01200037
:00000001FF
