:1000000018C03CC0B3C23AC06AC238C037C036C09C
:1000100035C034C033C032C031C030C02FC000370B
:100020000102040810200038010101010101E5046A
:100030009D0711241FBECFE5D2E0DEBFCDBF10E08B
:10004000A0E6B0E0ECECF4E102C005900D92A03A1D
:10005000B107D9F721E0A0EAB0E001C01D92A336B4
:10006000B207E1F710E0C8E1D0E003C02197FE013C
:10007000D5D7C731D107D1F731D51CCAC1CFDC01E3
:10008000362FE0915101EE2381F0F0E0862F90E0D1
:10009000BF018ED7392F842F90E0BF0189D7492F18
:1000A000822F90E0BF0184D7292FCD0163E070E05B
:1000B0007FD76091520170915301860F971F509125
:1000C0005401FC01E50FF11D308330915501FC0115
:1000D000E30FF11D408330915601FC01E30FF11D48
:1000E000208308954F925F926F927F928F929F929A
:1000F000AF92BF92CF92DF92EF92FF922B013C0121
:10010000C0909600D0909700E0909800F0909900F1
:10011000C701B6018827992729E630E940E050E079
:1001200058D76701EE24FF244B015C018C0C9D1C09
:10013000AE1CBF1C8092960090929700A0929800EF
:10014000B0929900C0909200D0909300E0909400FB
:10015000F0909500C701B6018827992720E536E47D
:1001600040E050E036D76701EE24FF24C60ED71ECC
:10017000E81EF91EC0929200D0929300E092940083
:10018000F0929500D40199278827BC01CD016C0D10
:100190007D1D8E1D9F1D74D720E030E040E85FE29A
:1001A000D5D76B017C01C301B2016AD79B01AC01B9
:1001B000C701B601CBD738D7FF90EF90DF90CF9033
:1001C000BF90AF909F908F907F906F905F904F9077
:1001D0000895282F30E0F901E05EFF4F9491F90176
:1001E000E85DFF4FE491EE2331F1811103C08AB540
:1001F0008F7304C0813021F48AB58F7C8ABD05C01D
:10020000843019F48CB58F7C8CBDF0E0EA5DFF4F33
:10021000A491B0E0611109C02FB7F8948C91E92F37
:10022000E095E823EC932FBF08958FB7F894EC91F5
:10023000E92BEC938FBF0895CF93DF9390E0FC01FF
:10024000E05EFF4F2491FC01E85DFF4F849188231D
:1002500059F190E0FC01E25EFF4FE491CE2FD0E037
:10026000FC01EA5DFF4F8491611108C09FB7F894CB
:100270008881E22FE095E823E8830EC0623071F4B4
:10028000A82FB0E09FB7F8948881322F3095832350
:100290008883EC91E22BEC939FBF06C08FB7F89454
:1002A000E881E22BE8838FBFDF91CF9108953FB7BC
:1002B000F8948091C8009091C900A091CA00B091B3
:1002C000CB002FB508B602FE05C02F3F19F00196EE
:1002D000A11DB11D3FBFBA2FA92F982F8827820FCC
:1002E000911DA11DB11DBC01CD0142E0660F771F1C
:1002F000881F991F4A95D1F708950F931F93CF93A5
:10030000DF93CDB7DEB727970FB6F894DEBF0FBEE9
:10031000CDBFCDDF009158011091590120915A01B4
:1003200030915B01DC01CB01801B910BA20BB30B65
:10033000C297A105B10568F3F89480914E019091A0
:100340004F019A838983E0915201F0915301DF01BB
:10035000119680818F83E0915C01F0915D01908125
:1003600080915E01982B9E839081809589238D8357
:100370008D818C8388E08B835E816D814F813B8191
:100380002C8189819A81508347FD252F3A952083BE
:10039000262F39F0441F00C000006083000000C019
:1003A000F2CF38E04D9160830000019761F7F09340
:1003B0005D01E0935C014F833B832C839A838983A7
:1003C000789475DF609358017093590180935A01B6
:1003D00090935B0127960FB6F894DEBF0FBECDBF9A
:1003E000DF91CF911F910F910895CF92DF92EF92FD
:1003F000FF92CF93DF936B017C0159DFEB01C114B6
:10040000D104E104F10471F052DF6C1B7D0B683EF6
:100410007340A8F381E0C81AD108E108F108C85177
:10042000DC4FEDCFDF91CF91FF90EF90DF90CF9039
:100430000895CF93DF93D82FC2E061E08D2FC9DEFE
:100440006AEF70E080E090E0D0DF60E08D2FC1DEE9
:100450006AEF70E080E090E0C8DFC15071F7DF9193
:10046000CF9108952FB7F8946091C4007091C500A2
:100470008091C6009091C7002FBF0895E0E6F0E09C
:1004800020E030E0408151814817590751F4220F94
:10049000331F220F331FF901E05AFF4F82819381EE
:1004A00008952F5F3F4F34962C30310559F780E087
:1004B00090E00895E0E6F0E02081318128173907C7
:1004C00011F473836283349620E0E039F207A1F7D8
:1004D00040E350E060E070E080E690E049C5789449
:1004E0001F920F920FB60F9211242F933F938F9369
:1004F0009F93AF93BF938091C4009091C500A0914A
:10050000C600B091C7003091C3002CE7230F2D37F0
:1005100028F02FEF230F0196A11DB11D2093C300DA
:100520008093C4009093C500A093C600B093C70009
:100530008091C8009091C900A091CA00B091CB00F1
:100540000196A11DB11D8093C8009093C900A0938E
:10055000CA00B093CB00BF91AF919F918F913F9113
:100560002F910F900FBE0F901F9018951F920F9212
:100570000FB60F921124EF92FF920F931F932F93B8
:100580003F934F935F936F937F938F939F93AF931B
:10059000BF93CF93DF93EF93FF9386B390E00090E8
:1005A000D20002C0959587950A94E2F7282F217012
:1005B00030E08091CE009091CF002817390709F0E4
:1005C000EDC175DEAB01BC014093D5005093D60060
:1005D0006093D7007093D8008091D9009091DA0091
:1005E000A091DB00B091DC008A019B01081B190B74
:1005F0002A0B3B0BD901C8010093DD001093DE00EC
:100600002093DF003093E0004093D9005093DA004C
:100610006093DB007093DC00B901A8014B575109CE
:10062000610971094D34510561057105C0F54091AD
:10063000A0005091A1006091A2007091A3004F5FB3
:100640005F4F6F4F7F4F4093A0005093A100609386
:10065000A2007093A3004630510561057105FCF0BE
:1006600021E030E04091CE005091CF004130510563
:1006700011F420E030E03093CF002093CE001092B0
:10068000A0001092A1001092A2001092A30010925C
:10069000D1001092D0001092CD001092CC00209189
:1006A000CC003091CD002130310509F140F02230ED
:1006B000310581F12330310509F4E8C06FC18A3773
:1006C0009105A105B105F8F48091D0009091D10079
:1006D00001969093D1008093D0000E970CF45EC1E8
:1006E00081E090E09093CD008093CC0006C18A37E2
:1006F0009105A105B10508F451C183E090E0909304
:10070000CD008093CC001092D1001092D0001092B6
:10071000E800F3C08A379105A105B10508F0B3C020
:1007200081E08093D4001092CD001092CC00109202
:10073000D1001092D0001092A0001092A10010924F
:10074000A2001092A300F8941092A7001092A600A5
:100750002091E800422F50E0ECECF0E080E090E0E7
:10076000BF016C5C70406417750724F436898327D9
:100770003196F6CF892B09F082C0233008F47FC070
:100780008091E200182F107C91E0103809F490E07D
:10079000C92FD0E0D093A500C093A4009130D9F424
:1007A00087FD07C090E09093A7008093A60001E02A
:1007B00045C090E4980F983208F03FC08F7390E0E6
:1007C000982F88272091E300822B9093A700809395
:1007D000A60002E033C04091E3008F73342F3670DF
:1007E00047FF0FC090E09093A7008093A600232FAF
:1007F00030E0359527952093A80041704093AA00DA
:100800001CC0407750E064E0440F551F6A95E1F743
:10081000232F30E075E0220F331F7A95E1F7242B68
:10082000352BA901482BCA019093A7008093A600FD
:100830008091E4008F718093A90000E0E090A60011
:10084000F090A70081E090E019DEE816F906B9F40F
:1008500082E090E013DEC817D90789F4103879F0E8
:10086000E02FF0E0E453FF4FC6898C2F807E803666
:1008700009F45FC008F04AC0803409F45AC0789483
:100880001092E8008BC083E090E02AC04091D00035
:100890005091D1004F5F5F4F5093D1004093D000F3
:1008A0003091E100330F21E08A379105A105B105B0
:1008B00008F020E0832F822B8093E100483051051F
:1008C00009F06CC0E091E800E63078F491E09E0F0A
:1008D0009093E800F0E0E453FF4F868B82E090E0D5
:1008E0009093CD008093CC0004C01092CD00109264
:1008F000CC001092D1001092D0001092A000109263
:10090000A1001092A2001092A30048C0803819F0F4
:10091000803A29F0B4CFCF71C093AF00B0CF8C2F05
:100920008F70C4FF03C08093B000A9CF8093B10043
:10093000A6CFC5FB882780F98093AE008C2F8F70DF
:1009400091E0813009F090E09093AD00082F10E025
:100950008230F8F083E090E091DDC071892B89F05E
:10096000C8010297880F991F2C2F30E044E035957D
:1009700027954A95E1F7820F931F8C010F5F1F4F58
:1009800008C0015011092091AF002F70C22BC093F5
:10099000AF001093AC000093AB0071CFFF91EF91CB
:1009A000DF91CF91BF91AF919F918F917F916F9187
:1009B0005F914F913F912F911F910F91FF90EF9079
:1009C0000F900FBE0F901F9018951F93CF93DF933A
:1009D0001092CD001092CC0081E090E09093CF0077
:1009E0008093CE001092D1001092D00082E090E06F
:1009F0009093D3008093D2001092D4001092E8001C
:100A000089E090E090934D0180934C018BE190E060
:100A100090934F0180934E0110925001109251011A
:100A200083E080935701109258011092590110925F
:100A30005A0110925B01E8E2F0E0E491F0E0EA5D37
:100A4000FF4FE491F0E0F0935D01E0935C01E0E2A0
:100A5000F0E0E491E0935E018BE190E00AD49093A2
:100A6000530180935201009729F02BE1FC01119270
:100A70002A95E9F781E0809354011092550182E0B4
:100A800080935601C9EED0E01FEF188219821A83B5
:100A90001B821C821D821E821F82188619861A865E
:100AA000E1DC6B837C838D839E83DCDC6F837887C2
:100AB00089879A87198260E08A818BDB61E08A816D
:100AC000BBDB198260E08A8184DB2B96F1E0CC34B9
:100AD000DF07D9F6DF91CF911F910895CF93DF9370
:100AE000CDB7DEB7E0970FB6F894DEBF0FBECDBF2F
:100AF000789480B7806880BF80B7806480BF8CB5F1
:100B000080648CBD8FEF8DBD80B7807F876080BF94
:100B100089B7846089BF83B7887F83BF8AB58C7F9C
:100B200081608ABD83B7877F83BF83B7887F8360F7
:100B300083BF86B1876086B9379A87B3886187BBE0
:100B400061E08091500178DB60E08091500141DBF1
:100B500000E010E080914C0190914D0108171907B9
:100B600028F420E040E060E0C80189DA0F5F1F4F01
:100B70000930110579F78091520190915301892B29
:100B800009F0BBDB40E350E060E070E0CE0101968D
:100B9000DFD18B819C8140E350E060E070E00797FB
:100BA00021F480E690E0D4D103C080E690E0E0D16B
:100BB000F894AA9A8BB780628BBFBA98C29878943F
:100BC0001092CD001092CC001092D1001092D00063
:100BD00082E090E09093D3008093D2001092E800DE
:100BE00081E090E09093CF008093CE006EEA73E0B6
:100BF00061DC61E070E082E090E05CDCCC24C394D6
:100C0000DD24D39488248394222423949AE0392EDB
:100C10008091AF00282F2470922E7090AE008071CA
:100C2000A82E0BEF1FEFB12C84E08B1558F0BB20E2
:100C3000F9F0C8010496EC2D01C0EE0F8A95EAF791
:100C40008E2F17C0043048F48C2D002E01C0880F61
:100C50000A94EAF721E030E00EC0C8010497FC2DA9
:100C600001C0FF0F8A95EAF78F2F22E030E003C022
:100C700080E120E030E0F901EC55FF4F93858923B6
:100C800021E009F420E08B2D632DBCD1E92FF0E0A9
:100C9000E754FF4F808128130BC0B3940F5F1F4FA1
:100CA0002BE0B212C1CFE5EBF0E080E090E037C07E
:100CB0008091B6008093B5008091B7008093B60014
:100CC0008091B8008093B7009093B800208389E0AA
:100CD000B81619F01092B40005C08091B4008F5F6F
:100CE0008093B4008091B4008530B9F61092B400BE
:100CF0001092B5001092B6001092B7001092B80092
:100D000089EBE82E80E0F82EF70111927F0184E054
:100D100090DBF3ECEF16F0E0FF06B1F7BECF6AE030
:100D200070E046D12191820F911D20E0E93BF2074E
:100D3000B1F78E3A9340A9F484E07BDB64EF71E075
:100D400080E090E052DB83E074DB64EF71E080E0F0
:100D500090E04BDB84E06DDB64EF71E080E090E0DD
:100D600044DBAA2049F0772029F060E083E031DA03
:100D700061E006C061E001C060E083E02ADA60E083
:100D800084E027DA09EE10E0A12CB12CE12CF12C43
:100D9000F801911007C0118260E082811ADAF8012F
:100DA00010827FC0808181117CC083819481A58164
:100DB000B681892B8A2B8B2B69F554DB2B013C01E7
:100DC0006AEF70E080E090E08DD9460E571E681EF5
:100DD000791EF2E34F0E511C611C711CF801438215
:100DE0005482658276823EDB2B013C0160ED77E028
:100DF00080E090E077D9460E571E681E791EF8EE07
:100E00004F0EF3E05F1E611C711CF8014782508693
:100E100061867286F801438054806580768022DB8B
:100E20004616570668067906E0F5F80147805084B3
:100E30006184728417DBF801461657066806790646
:100E400050F4D0821382148215821682D18261E01E
:100E50008281BFD926C0818191E0811190E0F801A3
:100E60009183811103C0D18261E003C0F801118236
:100E700060E08281AED9F6DA2B013C016AEF70E0C6
:100E800080E090E02FD9460E571E681E791EF2E3CF
:100E90004F0E511C611C711CF80143825482658203
:100EA000768280914C0190914D01E816F90680F40C
:100EB000F8019181892F62E172D0282F892F65E195
:100EC0006ED0482F892F66E16AD0682FC701D7D826
:100ED000F8018081882319F0FFEFAF1ABF0A2FEFC6
:100EE000E21AF20A055F1F4F89E0E816F10409F0E3
:100EF0004FCF80919100992059F081110FC08092BD
:100F0000900099E0A916B10471F4809291000BC091
:100F1000882321F0209290001092910080919000FF
:100F2000882309F475CE8091520190915301892B49
:100F300009F0E3D91092900069CE8091520190910E
:100F40005301009709F02DD260E08091500174C9DF
:100F5000DC01CB01FC01E199FECF06C0FFBBEEBB7B
:100F6000E09A31960DB20D9241505040B8F7089575
:100F7000DC01CB0102C02D9105D041505040D8F783
:100F80000895262FE199FECF1CBA9FBB8EBB2DBBC7
:100F90000FB6F894E29AE19A0FBE019608950024E4
:100FA00080FD060E660F11F08695D1F7802D08950D
:100FB0000024552704C0080E591F880F991F009759
:100FC00029F076956795B8F37105B9F7802D952FBF
:100FD0000895EE27FF27AA27BB2708C0A20FB31F3B
:100FE000E41FF51F220F331F441F551F9695879549
:100FF0007795679598F37040A9F7009799F7BD0129
:10100000CF010895991B79E004C0991F961708F045
:10101000961B881F7A95C9F780950895EE0FFF1FDC
:101020000590F491E02D099470D088F09F5790F0CE
:10103000B92F9927B751A0F0D1F0660F771F881FFD
:10104000991F1AF0BA95C9F712C0B13081F077D064
:10105000B1E0089574C0672F782F8827B85F39F002
:10106000B93FCCF3869577956795B395D9F73EF45C
:1010700090958095709561957F4F8F4F9F4F089504
:10108000E89409C097FB3EF4909580957095619522
:101090007F4F8F4F9F4F9923A9F0F92F96E9BB27D8
:1010A0009395F695879577956795B795F111F8CF54
:1010B000FAF4BB0F11F460FF1BC06F5F7F4F8F4FBF
:1010C0009F4F16C0882311F096E911C0772321F0B5
:1010D0009EE8872F762F05C0662371F096E8862F4D
:1010E00070E060E02AF09A95660F771F881FDAF7A4
:1010F000880F9695879597F9089557FD9058440F56
:10110000551F59F05F3F71F04795880F97FB991F66
:1011100061F09F3F79F08795089512161306140623
:10112000551FF2CF4695F1DF08C0161617061806B0
:10113000991FF1CF86957105610508940895E8948B
:10114000BB2766277727CB0197F908950AD080C07F
:1011500071D028F076D018F0952309F062C067C0EE
:10116000EFCFCBDFA8F39923D9F35523C9F3950F1C
:1011700050E0551FAA27EE27FF27BB27002408941D
:10118000679520F4E20FF31FB41F0A1E220F331FCE
:10119000441FAA1F6695A9F7779530F4F30FB41F83
:1011A0000A1E121E08F46395330F441FAA1F221F44
:1011B000769599F7879520F4B40F0A1E121E631FC7
:1011C000440FAA1F221F331F8695A9F7862F712D62
:1011D000602D11249F5750408AF0E1F088234AF097
:1011E000EE0FFF1FBB1F661F771F881F91505040D7
:1011F000A9F79E3F510570F014C0A2CF5F3FECF3FA
:10120000983EDCF3869577956795B795F795E795C2
:101210009F5FC1F7FE2B880F911D9695879597F9D3
:10122000089597F99F6780E870E060E008959FEF68
:1012300080EC089500240A9416161706180609066D
:10124000089500240A94121613061406050608953C
:10125000092E0394000C11F4882352F0BB0F40F4C4
:10126000BF2B11F460FF04C06F5F7F4F8F4F9F4F04
:1012700008950F931F93CF93DF938230910510F45D
:1012800082E090E0E0916101F091620120E030E0C5
:10129000A0E0B0E0309719F14081518102811381C3
:1012A00048175907C8F08417950769F4109731F06B
:1012B00012960C93129713961C9327C0009361010A
:1012C0001093620122C02115310519F0421753070E
:1012D00018F49A01BD01EF01DF01F801DBCF211500
:1012E0003105F9F0281B390B2430310580F48A814F
:1012F0009B816115710521F0FB019383828304C0FA
:101300009093620180936101FE01329644C0FE0118
:10131000E20FF31F8193919322503109398328837F
:101320003AC020915F0130916001232B41F420915C
:101330009C0030919D003093600120935F012091CB
:101340009A0030919B002115310541F42DB73EB72D
:1013500040919E0050919F00241B350BE0915F014E
:10136000F0916001E217F307A0F42E1B3F0B281742
:10137000390778F0AC014E5F5F4F2417350748F00E
:101380004E0F5F1F5093600140935F0181939193D3
:1013900002C0E0E0F0E0CF01DF91CF911F910F910B
:1013A0000895CF93DF93009709F481C0FC01329731
:1013B00013821282A0916101B0916201109781F4B1
:1013C00020813181820F931F20915F013091600154
:1013D0002817390751F5F0936001E0935F0167C06A
:1013E000ED0120E030E0CE17DF0740F44A815B8159
:1013F0009E0141155105F1F0EA01F5CFD383C28377
:1014000040815181840F951FC817D90759F48881ED
:101410009981840F951F0296918380838A819B8195
:10142000938382832115310529F4F0936201E093BF
:1014300061013DC0E901FB83EA8349915991C40FE1
:10144000D51FEC17FD0761F480819181840F951FF2
:101450000296E90199838883828193819B838A83A1
:10146000E0E0F0E012968D919C911397009719F0AF
:10147000FD01DC01F7CF8D919C9111979D012E5FAD
:101480003F4F820F931F20915F0130916001281719
:10149000390769F4309729F41092620110926101C2
:1014A00002C013821282B0936001A0935F01DF91AA
:1014B000CF91089510E0C8E1D0E003C0FE01AEDD99
:0C14C0002196C931D107D1F7F894FFCF75
:1014CC000000070001002A000200010003000100D7
:1014DC0004000300050002000600160007001500BA
:1014EC0008001200090005000A0005000B000500A9
:1014FC000101010000000200000000006301200057
:00000001FF
